{
  "contractName": "ContentOwnerEntity",
  "abi": [
    {
      "constant": true,
      "inputs": [
        {
          "name": "",
          "type": "uint256"
        }
      ],
      "name": "ownedContents",
      "outputs": [
        {
          "name": "content",
          "type": "address"
        },
        {
          "name": "deleted",
          "type": "bool"
        }
      ],
      "payable": false,
      "stateMutability": "view",
      "type": "function"
    },
    {
      "constant": true,
      "inputs": [],
      "name": "identifier",
      "outputs": [
        {
          "name": "",
          "type": "string"
        }
      ],
      "payable": false,
      "stateMutability": "view",
      "type": "function"
    },
    {
      "constant": true,
      "inputs": [],
      "name": "owner",
      "outputs": [
        {
          "name": "",
          "type": "address"
        }
      ],
      "payable": false,
      "stateMutability": "view",
      "type": "function"
    },
    {
      "constant": true,
      "inputs": [],
      "name": "identityProvider",
      "outputs": [
        {
          "name": "",
          "type": "uint8"
        }
      ],
      "payable": false,
      "stateMutability": "view",
      "type": "function"
    },
    {
      "constant": true,
      "inputs": [],
      "name": "getIdentifierHash",
      "outputs": [
        {
          "name": "",
          "type": "bytes32"
        }
      ],
      "payable": false,
      "stateMutability": "view",
      "type": "function"
    },
    {
      "constant": false,
      "inputs": [
        {
          "name": "newOwner",
          "type": "address"
        }
      ],
      "name": "transferOwnership",
      "outputs": [],
      "payable": false,
      "stateMutability": "nonpayable",
      "type": "function"
    },
    {
      "inputs": [
        {
          "name": "_identityProvider",
          "type": "uint8"
        },
        {
          "name": "_identifier",
          "type": "string"
        }
      ],
      "payable": false,
      "stateMutability": "nonpayable",
      "type": "constructor"
    },
    {
      "anonymous": false,
      "inputs": [
        {
          "indexed": true,
          "name": "content",
          "type": "address"
        },
        {
          "indexed": false,
          "name": "index",
          "type": "uint256"
        }
      ],
      "name": "ContentAdded",
      "type": "event"
    },
    {
      "anonymous": false,
      "inputs": [
        {
          "indexed": true,
          "name": "content",
          "type": "address"
        },
        {
          "indexed": false,
          "name": "index",
          "type": "uint256"
        }
      ],
      "name": "ContentDeleted",
      "type": "event"
    },
    {
      "anonymous": false,
      "inputs": [
        {
          "indexed": true,
          "name": "previousOwner",
          "type": "address"
        },
        {
          "indexed": true,
          "name": "newOwner",
          "type": "address"
        }
      ],
      "name": "OwnershipTransferred",
      "type": "event"
    },
    {
      "constant": false,
      "inputs": [
        {
          "name": "_content",
          "type": "address"
        }
      ],
      "name": "addContent",
      "outputs": [],
      "payable": false,
      "stateMutability": "nonpayable",
      "type": "function"
    },
    {
      "constant": false,
      "inputs": [
        {
          "name": "_content",
          "type": "address"
        }
      ],
      "name": "deleteContent",
      "outputs": [],
      "payable": false,
      "stateMutability": "nonpayable",
      "type": "function"
    },
    {
      "constant": true,
      "inputs": [],
      "name": "getAllOwnedContent",
      "outputs": [
        {
          "name": "",
          "type": "address[]"
        }
      ],
      "payable": false,
      "stateMutability": "view",
      "type": "function"
    }
  ],
  "bytecode": "0x606060405234156200001057600080fd5b60405162000ff838038062000ff8833981016040528080519060200190919080518201919050508181336000806101000a81548173ffffffffffffffffffffffffffffffffffffffff021916908373ffffffffffffffffffffffffffffffffffffffff160217905550600060068111156200008757fe5b8260068111156200009457fe5b1415620000ca57602060405190810160405280600081525060019080519060200190620000c392919062000159565b506200010f565b620000e9816200013d6401000000000262000d72176401000000009004565b1515620000f557600080fd5b80600190805190602001906200010d92919062000159565b505b81600260006101000a81548160ff021916908360068111156200012e57fe5b0217905550505050506200021c565b600062000149620001e0565b8290506000815111915050919050565b828054600181600116156101000203166002900490600052602060002090601f016020900481019282601f106200019c57805160ff1916838001178555620001cd565b82800160010185558215620001cd579182015b82811115620001cc578251825591602001919060010190620001af565b5b509050620001dc9190620001f4565b5090565b602060405190810160405280600081525090565b6200021991905b8082111562000215576000816000905550600101620001fb565b5090565b90565b610dcc806200022c6000396000f300606060405260043610610099576000357c0100000000000000000000000000000000000000000000000000000000900463ffffffff16806348b53b4d1461009e578063571937e8146100d75780637998a1c41461014557806387fcd0b8146101d35780638da5cb5b1461020c578063c573a27a14610261578063ea8e9de314610298578063f2fde38b146102c9578063fe007a5514610302575b600080fd5b34156100a957600080fd5b6100d5600480803573ffffffffffffffffffffffffffffffffffffffff1690602001909190505061036c565b005b34156100e257600080fd5b6100f86004808035906020019091905050610699565b604051808373ffffffffffffffffffffffffffffffffffffffff1673ffffffffffffffffffffffffffffffffffffffff168152602001821515151581526020019250505060405180910390f35b341561015057600080fd5b6101586106f6565b6040518080602001828103825283818151815260200191508051906020019080838360005b8381101561019857808201518184015260208101905061017d565b50505050905090810190601f1680156101c55780820380516001836020036101000a031916815260200191505b509250505060405180910390f35b34156101de57600080fd5b61020a600480803573ffffffffffffffffffffffffffffffffffffffff16906020019091905050610794565b005b341561021757600080fd5b61021f610982565b604051808273ffffffffffffffffffffffffffffffffffffffff1673ffffffffffffffffffffffffffffffffffffffff16815260200191505060405180910390f35b341561026c57600080fd5b6102746109a7565b6040518082600681111561028457fe5b60ff16815260200191505060405180910390f35b34156102a357600080fd5b6102ab6109ba565b60405180826000191660001916815260200191505060405180910390f35b34156102d457600080fd5b610300600480803573ffffffffffffffffffffffffffffffffffffffff169060200190919050506109cb565b005b341561030d57600080fd5b610315610b20565b6040518080602001828103825283818151815260200191508051906020019060200280838360005b8381101561035857808201518184015260208101905061033d565b505050509050019250505060405180910390f35b60008060009054906101000a900473ffffffffffffffffffffffffffffffffffffffff1673ffffffffffffffffffffffffffffffffffffffff163373ffffffffffffffffffffffffffffffffffffffff161415156103c957600080fd5b81600073ffffffffffffffffffffffffffffffffffffffff168173ffffffffffffffffffffffffffffffffffffffff161415151561040657600080fd5b6000600460008573ffffffffffffffffffffffffffffffffffffffff1673ffffffffffffffffffffffffffffffffffffffff1681526020019081526020016000205414151561045457600080fd5b8273ffffffffffffffffffffffffffffffffffffffff16638da5cb5b6000604051602001526040518163ffffffff167c0100000000000000000000000000000000000000000000000000000000028152600401602060405180830381600087803b15156104c057600080fd5b6102c65a03f115156104d157600080fd5b5050506040518051905073ffffffffffffffffffffffffffffffffffffffff163373ffffffffffffffffffffffffffffffffffffffff1614151561051457600080fd5b600380548060010182816105289190610cd8565b9160005260206000209001600060408051908101604052808773ffffffffffffffffffffffffffffffffffffffff16815260200160001515815250909190915060008201518160000160006101000a81548173ffffffffffffffffffffffffffffffffffffffff021916908373ffffffffffffffffffffffffffffffffffffffff16021790555060208201518160000160146101000a81548160ff0219169083151502179055505050915081600460008573ffffffffffffffffffffffffffffffffffffffff1673ffffffffffffffffffffffffffffffffffffffff1681526020019081526020016000208190555061062d6001600554610c2f90919063ffffffff16565b6005819055508273ffffffffffffffffffffffffffffffffffffffff167f3afad669c31af1a04c094a17932c9e127b26ce789e13de936ff14c2161ec9ce761067f600185610c4d90919063ffffffff16565b6040518082815260200191505060405180910390a2505050565b6003818154811015156106a857fe5b90600052602060002090016000915090508060000160009054906101000a900473ffffffffffffffffffffffffffffffffffffffff16908060000160149054906101000a900460ff16905082565b60018054600181600116156101000203166002900480601f01602080910402602001604051908101604052809291908181526020018280546001816001161561010002031660029004801561078c5780601f106107615761010080835404028352916020019161078c565b820191906000526020600020905b81548152906001019060200180831161076f57829003601f168201915b505050505081565b6000806000809054906101000a900473ffffffffffffffffffffffffffffffffffffffff1673ffffffffffffffffffffffffffffffffffffffff163373ffffffffffffffffffffffffffffffffffffffff161415156107f257600080fd5b82600073ffffffffffffffffffffffffffffffffffffffff168173ffffffffffffffffffffffffffffffffffffffff161415151561082f57600080fd5b600460008573ffffffffffffffffffffffffffffffffffffffff1673ffffffffffffffffffffffffffffffffffffffff1681526020019081526020016000205492506000831415151561088157600080fd5b610895600184610c4d90919063ffffffff16565b915060016003838154811015156108a857fe5b906000526020600020900160000160146101000a81548160ff0219169083151502179055506000600460008673ffffffffffffffffffffffffffffffffffffffff1673ffffffffffffffffffffffffffffffffffffffff168152602001908152602001600020819055506109286001600554610c4d90919063ffffffff16565b6005819055508373ffffffffffffffffffffffffffffffffffffffff167f16a595a60488b92c2f54dda2a71e539f3fec4bc6152a849ea05fa66b13262e0b836040518082815260200191505060405180910390a250505050565b6000809054906101000a900473ffffffffffffffffffffffffffffffffffffffff1681565b600260009054906101000a900460ff1681565b60006109c66001610c66565b905090565b6000809054906101000a900473ffffffffffffffffffffffffffffffffffffffff1673ffffffffffffffffffffffffffffffffffffffff163373ffffffffffffffffffffffffffffffffffffffff16141515610a2657600080fd5b600073ffffffffffffffffffffffffffffffffffffffff168173ffffffffffffffffffffffffffffffffffffffff1614151515610a6257600080fd5b8073ffffffffffffffffffffffffffffffffffffffff166000809054906101000a900473ffffffffffffffffffffffffffffffffffffffff1673ffffffffffffffffffffffffffffffffffffffff167f8be0079c531659141344cd1fd0a4f28419497f9722a3daafe3b4186f6b6457e060405160405180910390a3806000806101000a81548173ffffffffffffffffffffffffffffffffffffffff021916908373ffffffffffffffffffffffffffffffffffffffff16021790555050565b610b28610d04565b610b30610d04565b6000806000600554604051805910610b455750595b9080825280602002602001820160405250935060009250600091505b600380549050821015610c2557600382815481101515610b7d57fe5b906000526020600020900190508060000160149054906101000a900460ff161515610c18578060000160009054906101000a900473ffffffffffffffffffffffffffffffffffffffff168484806001019550815181101515610bdb57fe5b9060200190602002019073ffffffffffffffffffffffffffffffffffffffff16908173ffffffffffffffffffffffffffffffffffffffff16815250505b8180600101925050610b61565b8394505050505090565b6000808284019050838110151515610c4357fe5b8091505092915050565b6000828211151515610c5b57fe5b818303905092915050565b6000816040518082805460018160011615610100020316600290048015610cc45780601f10610ca2576101008083540402835291820191610cc4565b820191906000526020600020905b815481529060010190602001808311610cb0575b505091505060405180910390209050919050565b815481835581811511610cff57818360005260206000209182019101610cfe9190610d18565b5b505050565b602060405190810160405280600081525090565b610d6f91905b80821115610d6b57600080820160006101000a81549073ffffffffffffffffffffffffffffffffffffffff02191690556000820160146101000a81549060ff021916905550600101610d1e565b5090565b90565b6000610d7c610d8c565b8290506000815111915050919050565b6020604051908101604052806000815250905600a165627a7a723058204dd8b236ceabdb07f68cfd435950d70625b0f993f349a06889213df5a2d270660029",
  "source": "pragma solidity ^0.4.18;\r\n\r\n\r\nimport './Entity.sol';\r\nimport '../content/Content.sol';\r\nimport '../utils/SafeMath.sol';\r\n\r\n/**\r\n * @title Content owner entity\r\n * @dev The ContentOwnerEntity keeps track of the entity that owns various content.\r\n * This allows to aggregate all the content owned by an entity\r\n */\r\ncontract ContentOwnerEntity is Entity {\r\n\r\n    using SafeMath for uint256;\r\n\r\n    struct OwnedContent {\r\n        address content;\r\n        bool deleted;\r\n    }\r\n\r\n    event ContentAdded(\r\n        address indexed content,\r\n        uint256 index\r\n    );\r\n\r\n    event ContentDeleted(\r\n        address indexed content,\r\n        uint256 index\r\n    );\r\n\r\n    modifier nonEmptyContent(address content) {\r\n        require(content != address(0));\r\n        _;\r\n    }\r\n\r\n    OwnedContent[] public ownedContents;\r\n\r\n    mapping(address => uint256) private contentIndex_;\r\n    uint256 private totalUnDeletedContent_;\r\n\r\n    function ContentOwnerEntity(\r\n        IdentityProvider _identityProvider,\r\n        string _identifier)\r\n        Entity(_identityProvider, _identifier)\r\n        public\r\n    {\r\n\r\n    }\r\n\r\n    /**\r\n     * @dev Add content that is owned by the entity\r\n     * @param _content The address of the content contract\r\n     */\r\n    function addContent(\r\n        address _content)\r\n        onlyOwner\r\n        nonEmptyContent(_content)\r\n        public\r\n    {\r\n        // Check if the owner of the content is the same\r\n        require(contentIndex_[_content] == 0);\r\n        require(msg.sender == Content(_content).owner());\r\n\r\n        uint256 newLength = ownedContents.push(OwnedContent({\r\n            content: _content,\r\n            deleted: false\r\n        }));\r\n\r\n        contentIndex_[_content] = newLength;\r\n        totalUnDeletedContent_ = totalUnDeletedContent_.add(1);\r\n\r\n        ContentAdded(_content, newLength.sub(1));\r\n    }\r\n\r\n    /**\r\n     * @dev Delete the content owned by the entity\r\n     * @param _content The address of the content contract that needs to be deleted\r\n     */\r\n    function deleteContent(\r\n        address _content)\r\n        onlyOwner\r\n        nonEmptyContent(_content)\r\n        public\r\n    {\r\n        uint256 indexAhead = contentIndex_[_content];\r\n        require(indexAhead != 0);\r\n\r\n        uint256 indexOfContent = indexAhead.sub(1);\r\n\r\n        // Set the content to deleted\r\n        ownedContents[indexOfContent].deleted = true;\r\n        contentIndex_[_content] = 0;\r\n\r\n        totalUnDeletedContent_ = totalUnDeletedContent_.sub(1);\r\n\r\n        ContentDeleted(_content, indexOfContent);\r\n    }\r\n\r\n    /**\r\n     * @dev Get all the non-deleted content owned by the entity\r\n     */\r\n    function getAllOwnedContent() external view returns(address[])\r\n    {\r\n        address[] memory contentAddresses = new address[](totalUnDeletedContent_);\r\n\r\n        uint256 counter = 0;\r\n        \r\n        for (uint256 i = 0; i < ownedContents.length; i++) {\r\n            OwnedContent storage content = ownedContents[i];\r\n            if (!content.deleted) {\r\n                contentAddresses[counter++] = content.content;\r\n            }\r\n        }\r\n\r\n        return contentAddresses;\r\n    }\r\n}",
  "sourcePath": "H:\\Projects\\my-github\\bol0x\\packages\\contracts\\contracts\\entity\\ContentOwnerEntity.sol",
  "compiler": {
    "name": "solc",
    "version": "0.4.19+commit.c4cbbb05.Emscripten.clang"
  },
  "schemaVersion": "1.0.1",
  "updatedAt": "2018-02-15T07:02:26.143Z"
}