{
  "contractName": "Content",
  "abi": [
    {
      "constant": true,
      "inputs": [],
      "name": "contentAddress",
      "outputs": [
        {
          "name": "",
          "type": "string"
        }
      ],
      "payable": false,
      "stateMutability": "view",
      "type": "function"
    },
    {
      "constant": true,
      "inputs": [],
      "name": "owner",
      "outputs": [
        {
          "name": "",
          "type": "address"
        }
      ],
      "payable": false,
      "stateMutability": "view",
      "type": "function"
    },
    {
      "constant": false,
      "inputs": [
        {
          "name": "newOwner",
          "type": "address"
        }
      ],
      "name": "transferOwnership",
      "outputs": [],
      "payable": false,
      "stateMutability": "nonpayable",
      "type": "function"
    },
    {
      "inputs": [
        {
          "name": "_contentAddress",
          "type": "string"
        }
      ],
      "payable": false,
      "stateMutability": "nonpayable",
      "type": "constructor"
    },
    {
      "anonymous": false,
      "inputs": [
        {
          "indexed": true,
          "name": "previousOwner",
          "type": "address"
        },
        {
          "indexed": true,
          "name": "newOwner",
          "type": "address"
        }
      ],
      "name": "OwnershipTransferred",
      "type": "event"
    }
  ],
  "bytecode": "0x6060604052341561000f57600080fd5b60405161057b38038061057b83398101604052808051820191905050336000806101000a81548173ffffffffffffffffffffffffffffffffffffffff021916908373ffffffffffffffffffffffffffffffffffffffff160217905550610087816100af64010000000002610390176401000000009004565b151561009257600080fd5b80600190805190602001906100a89291906100c9565b5050610182565b60006100b9610149565b8290506000815111915050919050565b828054600181600116156101000203166002900490600052602060002090601f016020900481019282601f1061010a57805160ff1916838001178555610138565b82800160010185558215610138579182015b8281111561013757825182559160200191906001019061011c565b5b509050610145919061015d565b5090565b602060405190810160405280600081525090565b61017f91905b8082111561017b576000816000905550600101610163565b5090565b90565b6103ea806101916000396000f300606060405260043610610057576000357c0100000000000000000000000000000000000000000000000000000000900463ffffffff168063129b97751461005c5780638da5cb5b146100ea578063f2fde38b1461013f575b600080fd5b341561006757600080fd5b61006f610178565b6040518080602001828103825283818151815260200191508051906020019080838360005b838110156100af578082015181840152602081019050610094565b50505050905090810190601f1680156100dc5780820380516001836020036101000a031916815260200191505b509250505060405180910390f35b34156100f557600080fd5b6100fd610216565b604051808273ffffffffffffffffffffffffffffffffffffffff1673ffffffffffffffffffffffffffffffffffffffff16815260200191505060405180910390f35b341561014a57600080fd5b610176600480803573ffffffffffffffffffffffffffffffffffffffff1690602001909190505061023b565b005b60018054600181600116156101000203166002900480601f01602080910402602001604051908101604052809291908181526020018280546001816001161561010002031660029004801561020e5780601f106101e35761010080835404028352916020019161020e565b820191906000526020600020905b8154815290600101906020018083116101f157829003601f168201915b505050505081565b6000809054906101000a900473ffffffffffffffffffffffffffffffffffffffff1681565b6000809054906101000a900473ffffffffffffffffffffffffffffffffffffffff1673ffffffffffffffffffffffffffffffffffffffff163373ffffffffffffffffffffffffffffffffffffffff1614151561029657600080fd5b600073ffffffffffffffffffffffffffffffffffffffff168173ffffffffffffffffffffffffffffffffffffffff16141515156102d257600080fd5b8073ffffffffffffffffffffffffffffffffffffffff166000809054906101000a900473ffffffffffffffffffffffffffffffffffffffff1673ffffffffffffffffffffffffffffffffffffffff167f8be0079c531659141344cd1fd0a4f28419497f9722a3daafe3b4186f6b6457e060405160405180910390a3806000806101000a81548173ffffffffffffffffffffffffffffffffffffffff021916908373ffffffffffffffffffffffffffffffffffffffff16021790555050565b600061039a6103aa565b8290506000815111915050919050565b6020604051908101604052806000815250905600a165627a7a72305820d323e57a235012816558b6279a7c40ab01553092b20c82d13a86301bb51961850029",
  "source": "pragma solidity ^0.4.18;\r\n\r\nimport '../utils/Ownable.sol';\r\nimport '../utils/StringUtils.sol';\r\n\r\n/**\r\n * @title Content\r\n * @dev The Content contract keeps track of content address that is published offchain\r\n */\r\ncontract Content is Ownable {\r\n    string public contentAddress;\r\n\r\n    /**\r\n     * @dev The Content constructor sets the address of the content\r\n     * @param _contentAddress Non empty string that represents the offchain content address\r\n     */\r\n    function Content(\r\n        string _contentAddress)\r\n        Ownable()\r\n        public\r\n    {\r\n        require(StringUtils.isNotEmpty(_contentAddress));\r\n\r\n        contentAddress = _contentAddress;\r\n    }\r\n}",
  "sourcePath": "H:\\Projects\\my-github\\bol0x\\packages\\contracts\\contracts\\content\\Content.sol",
  "compiler": {
    "name": "solc",
    "version": "0.4.19+commit.c4cbbb05.Emscripten.clang"
  },
  "schemaVersion": "1.0.1",
  "updatedAt": "2018-02-15T07:02:26.141Z"
}