{
  "contractName": "EntityDirectory",
  "abi": [
    {
      "constant": true,
      "inputs": [
        {
          "name": "",
          "type": "uint256"
        }
      ],
      "name": "entities",
      "outputs": [
        {
          "name": "",
          "type": "address"
        }
      ],
      "payable": false,
      "stateMutability": "view",
      "type": "function"
    },
    {
      "constant": true,
      "inputs": [],
      "name": "identifier",
      "outputs": [
        {
          "name": "",
          "type": "string"
        }
      ],
      "payable": false,
      "stateMutability": "view",
      "type": "function"
    },
    {
      "constant": true,
      "inputs": [],
      "name": "owner",
      "outputs": [
        {
          "name": "",
          "type": "address"
        }
      ],
      "payable": false,
      "stateMutability": "view",
      "type": "function"
    },
    {
      "constant": true,
      "inputs": [],
      "name": "identityProvider",
      "outputs": [
        {
          "name": "",
          "type": "uint8"
        }
      ],
      "payable": false,
      "stateMutability": "view",
      "type": "function"
    },
    {
      "constant": true,
      "inputs": [],
      "name": "getIdentifierHash",
      "outputs": [
        {
          "name": "",
          "type": "bytes32"
        }
      ],
      "payable": false,
      "stateMutability": "view",
      "type": "function"
    },
    {
      "constant": false,
      "inputs": [
        {
          "name": "newOwner",
          "type": "address"
        }
      ],
      "name": "transferOwnership",
      "outputs": [],
      "payable": false,
      "stateMutability": "nonpayable",
      "type": "function"
    },
    {
      "inputs": [
        {
          "name": "_identityProvider",
          "type": "uint8"
        },
        {
          "name": "_identifier",
          "type": "string"
        }
      ],
      "payable": false,
      "stateMutability": "nonpayable",
      "type": "constructor"
    },
    {
      "anonymous": false,
      "inputs": [
        {
          "indexed": true,
          "name": "entity",
          "type": "address"
        }
      ],
      "name": "EntityAdded",
      "type": "event"
    },
    {
      "anonymous": false,
      "inputs": [
        {
          "indexed": true,
          "name": "entity",
          "type": "address"
        }
      ],
      "name": "EntityRemoved",
      "type": "event"
    },
    {
      "anonymous": false,
      "inputs": [
        {
          "indexed": true,
          "name": "previousOwner",
          "type": "address"
        },
        {
          "indexed": true,
          "name": "newOwner",
          "type": "address"
        }
      ],
      "name": "OwnershipTransferred",
      "type": "event"
    },
    {
      "constant": false,
      "inputs": [
        {
          "name": "_entity",
          "type": "address"
        }
      ],
      "name": "addEntity",
      "outputs": [],
      "payable": false,
      "stateMutability": "nonpayable",
      "type": "function"
    },
    {
      "constant": false,
      "inputs": [
        {
          "name": "_entity",
          "type": "address"
        }
      ],
      "name": "removeEntity",
      "outputs": [],
      "payable": false,
      "stateMutability": "nonpayable",
      "type": "function"
    },
    {
      "constant": true,
      "inputs": [],
      "name": "getAllEntities",
      "outputs": [
        {
          "name": "",
          "type": "address[]"
        }
      ],
      "payable": false,
      "stateMutability": "view",
      "type": "function"
    }
  ],
  "bytecode": "0x606060405234156200001057600080fd5b60405162000eaf38038062000eaf833981016040528080519060200190919080518201919050508181336000806101000a81548173ffffffffffffffffffffffffffffffffffffffff021916908373ffffffffffffffffffffffffffffffffffffffff160217905550600060068111156200008757fe5b8260068111156200009457fe5b1415620000ca57602060405190810160405280600081525060019080519060200190620000c392919062000159565b506200010f565b620000e9816200013d6401000000000262000c29176401000000009004565b1515620000f557600080fd5b80600190805190602001906200010d92919062000159565b505b81600260006101000a81548160ff021916908360068111156200012e57fe5b0217905550505050506200021c565b600062000149620001e0565b8290506000815111915050919050565b828054600181600116156101000203166002900490600052602060002090601f016020900481019282601f106200019c57805160ff1916838001178555620001cd565b82800160010185558215620001cd579182015b82811115620001cc578251825591602001919060010190620001af565b5b509050620001dc9190620001f4565b5090565b602060405190810160405280600081525090565b6200021991905b8082111562000215576000816000905550600101620001fb565b5090565b90565b610c83806200022c6000396000f300606060405260043610610099576000357c0100000000000000000000000000000000000000000000000000000000900463ffffffff1680636331883b1461009e5780637998a1c4146101015780637e69dae01461018f5780638da5cb5b146101f9578063c573a27a1461024e578063dd18299614610285578063ea8e9de3146102be578063f1703d24146102ef578063f2fde38b14610328575b600080fd5b34156100a957600080fd5b6100bf6004808035906020019091905050610361565b604051808273ffffffffffffffffffffffffffffffffffffffff1673ffffffffffffffffffffffffffffffffffffffff16815260200191505060405180910390f35b341561010c57600080fd5b6101146103a0565b6040518080602001828103825283818151815260200191508051906020019080838360005b83811015610154578082015181840152602081019050610139565b50505050905090810190601f1680156101815780820380516001836020036101000a031916815260200191505b509250505060405180910390f35b341561019a57600080fd5b6101a261043e565b6040518080602001828103825283818151815260200191508051906020019060200280838360005b838110156101e55780820151818401526020810190506101ca565b505050509050019250505060405180910390f35b341561020457600080fd5b61020c6104d2565b604051808273ffffffffffffffffffffffffffffffffffffffff1673ffffffffffffffffffffffffffffffffffffffff16815260200191505060405180910390f35b341561025957600080fd5b6102616104f7565b6040518082600681111561027157fe5b60ff16815260200191505060405180910390f35b341561029057600080fd5b6102bc600480803573ffffffffffffffffffffffffffffffffffffffff1690602001909190505061050a565b005b34156102c957600080fd5b6102d16106c4565b60405180826000191660001916815260200191505060405180910390f35b34156102fa57600080fd5b610326600480803573ffffffffffffffffffffffffffffffffffffffff169060200190919050506106d5565b005b341561033357600080fd5b61035f600480803573ffffffffffffffffffffffffffffffffffffffff16906020019091905050610897565b005b60038181548110151561037057fe5b90600052602060002090016000915054906101000a900473ffffffffffffffffffffffffffffffffffffffff1681565b60018054600181600116156101000203166002900480601f0160208091040260200160405190810160405280929190818152602001828054600181600116156101000203166002900480156104365780601f1061040b57610100808354040283529160200191610436565b820191906000526020600020905b81548152906001019060200180831161041957829003601f168201915b505050505081565b610446610b98565b60038054806020026020016040519081016040528092919081815260200182805480156104c857602002820191906000526020600020905b8160009054906101000a900473ffffffffffffffffffffffffffffffffffffffff1673ffffffffffffffffffffffffffffffffffffffff168152602001906001019080831161047e575b5050505050905090565b6000809054906101000a900473ffffffffffffffffffffffffffffffffffffffff1681565b600260009054906101000a900460ff1681565b6000816000809054906101000a900473ffffffffffffffffffffffffffffffffffffffff1673ffffffffffffffffffffffffffffffffffffffff163373ffffffffffffffffffffffffffffffffffffffff16148061061957508073ffffffffffffffffffffffffffffffffffffffff16638da5cb5b6000604051602001526040518163ffffffff167c0100000000000000000000000000000000000000000000000000000000028152600401602060405180830381600087803b15156105cf57600080fd5b6102c65a03f115156105e057600080fd5b5050506040518051905073ffffffffffffffffffffffffffffffffffffffff163373ffffffffffffffffffffffffffffffffffffffff16145b151561062457600080fd5b600091505b6003805490508210156106bf578273ffffffffffffffffffffffffffffffffffffffff1660038381548110151561065c57fe5b906000526020600020900160009054906101000a900473ffffffffffffffffffffffffffffffffffffffff1673ffffffffffffffffffffffffffffffffffffffff1614156106b2576106ad826109ec565b6106bf565b8180600101925050610629565b505050565b60006106d06001610b26565b905090565b806000809054906101000a900473ffffffffffffffffffffffffffffffffffffffff1673ffffffffffffffffffffffffffffffffffffffff163373ffffffffffffffffffffffffffffffffffffffff1614806107e257508073ffffffffffffffffffffffffffffffffffffffff16638da5cb5b6000604051602001526040518163ffffffff167c0100000000000000000000000000000000000000000000000000000000028152600401602060405180830381600087803b151561079857600080fd5b6102c65a03f115156107a957600080fd5b5050506040518051905073ffffffffffffffffffffffffffffffffffffffff163373ffffffffffffffffffffffffffffffffffffffff16145b15156107ed57600080fd5b600380548060010182816108019190610bac565b9160005260206000209001600084909190916101000a81548173ffffffffffffffffffffffffffffffffffffffff021916908373ffffffffffffffffffffffffffffffffffffffff160217905550508173ffffffffffffffffffffffffffffffffffffffff167fb22e19f08ff14b8507fef310677b98ad1329eba6abb5b90f147acd6475dc762b60405160405180910390a25050565b6000809054906101000a900473ffffffffffffffffffffffffffffffffffffffff1673ffffffffffffffffffffffffffffffffffffffff163373ffffffffffffffffffffffffffffffffffffffff161415156108f257600080fd5b600073ffffffffffffffffffffffffffffffffffffffff168173ffffffffffffffffffffffffffffffffffffffff161415151561092e57600080fd5b8073ffffffffffffffffffffffffffffffffffffffff166000809054906101000a900473ffffffffffffffffffffffffffffffffffffffff1673ffffffffffffffffffffffffffffffffffffffff167f8be0079c531659141344cd1fd0a4f28419497f9722a3daafe3b4186f6b6457e060405160405180910390a3806000806101000a81548173ffffffffffffffffffffffffffffffffffffffff021916908373ffffffffffffffffffffffffffffffffffffffff16021790555050565b60006003828154811015156109fd57fe5b906000526020600020900160009054906101000a900473ffffffffffffffffffffffffffffffffffffffff1690506003600160038054905003815481101515610a4257fe5b906000526020600020900160009054906101000a900473ffffffffffffffffffffffffffffffffffffffff16600383815481101515610a7d57fe5b906000526020600020900160006101000a81548173ffffffffffffffffffffffffffffffffffffffff021916908373ffffffffffffffffffffffffffffffffffffffff1602179055506001600381818054905003915081610ade9190610bd8565b508073ffffffffffffffffffffffffffffffffffffffff167f66baa8598dad476a7a23c2c39a3c9ea353a313b8050f5f2ff7df3121abe1f98360405160405180910390a25050565b6000816040518082805460018160011615610100020316600290048015610b845780601f10610b62576101008083540402835291820191610b84565b820191906000526020600020905b815481529060010190602001808311610b70575b505091505060405180910390209050919050565b602060405190810160405280600081525090565b815481835581811511610bd357818360005260206000209182019101610bd29190610c04565b5b505050565b815481835581811511610bff57818360005260206000209182019101610bfe9190610c04565b5b505050565b610c2691905b80821115610c22576000816000905550600101610c0a565b5090565b90565b6000610c33610c43565b8290506000815111915050919050565b6020604051908101604052806000815250905600a165627a7a7230582017fd90eb026805ccf44ecd00733808f9f53bb1d861ccf26aaa166aefb2f4036c0029",
  "source": "pragma solidity ^0.4.18;\r\n\r\n\r\nimport '../utils/Ownable.sol';\r\nimport '../utils/SafeMath.sol';\r\nimport '../entity/Entity.sol';\r\n\r\n/**\r\n * @title Entity directory\r\n * @dev The contract maintains the list of \r\n */\r\ncontract EntityDirectory is Entity {\r\n    using SafeMath for uint256;\r\n\r\n    event EntityAdded(\r\n        address indexed entity\r\n    );\r\n\r\n    event EntityRemoved(\r\n        address indexed entity\r\n    );\r\n\r\n    modifier onlyOwnerOrEntityOwner(address _entity) {\r\n        require(msg.sender == owner || msg.sender == Entity(_entity).owner());\r\n        _;\r\n    }\r\n\r\n    address[] public entities;\r\n\r\n    function EntityDirectory(\r\n        IdentityProvider _identityProvider,\r\n        string _identifier)\r\n        Entity(_identityProvider, _identifier)\r\n        public\r\n    {\r\n    }\r\n\r\n    /**\r\n     * @dev Add an entity to the directory.\r\n     * param _entity The entity to add.\r\n     */\r\n    function addEntity(\r\n        address _entity)\r\n        onlyOwnerOrEntityOwner(_entity)\r\n        public\r\n    {\r\n        entities.push(_entity);\r\n        EntityAdded(_entity);\r\n    }\r\n\r\n    /**\r\n     * @dev Remove an existing entity from the directory.\r\n     * param _entity The entity to remove.\r\n     */\r\n    function removeEntity(\r\n        address _entity)\r\n        onlyOwnerOrEntityOwner(_entity)\r\n        public\r\n    {\r\n        for (uint i = 0; i < entities.length; i++) {\r\n            if (entities[i] == _entity) {\r\n                removeEntityFromList(i);\r\n                break;\r\n            }\r\n        }\r\n    }\r\n\r\n    /**\r\n     * @dev Remove an existing entity from the list at a particular index.\r\n     * param _index The index of the entity to remove from the list.\r\n     */\r\n    function removeEntityFromList(\r\n        uint _index)\r\n        internal\r\n    {\r\n        address entity = entities[_index];\r\n        entities[_index] = entities[entities.length - 1];\r\n        entities.length -= 1;\r\n\r\n        EntityRemoved(entity);\r\n    }\r\n\r\n    /**\r\n     * @dev Get all the entities in the directory.\r\n     */\r\n    function getAllEntities()\r\n        external\r\n        view\r\n        returns (address[]) {\r\n\r\n        return entities;\r\n    }\r\n}",
  "sourcePath": "H:\\Projects\\my-github\\bol0x\\packages\\contracts\\contracts\\directory\\EntityDirectory.sol",
  "compiler": {
    "name": "solc",
    "version": "0.4.19+commit.c4cbbb05.Emscripten.clang"
  },
  "schemaVersion": "1.0.1",
  "updatedAt": "2018-02-15T07:02:26.142Z"
}