{
  "contractName": "Entity",
  "abi": [
    {
      "constant": true,
      "inputs": [],
      "name": "identifier",
      "outputs": [
        {
          "name": "",
          "type": "string"
        }
      ],
      "payable": false,
      "stateMutability": "view",
      "type": "function"
    },
    {
      "constant": true,
      "inputs": [],
      "name": "owner",
      "outputs": [
        {
          "name": "",
          "type": "address"
        }
      ],
      "payable": false,
      "stateMutability": "view",
      "type": "function"
    },
    {
      "constant": true,
      "inputs": [],
      "name": "identityProvider",
      "outputs": [
        {
          "name": "",
          "type": "uint8"
        }
      ],
      "payable": false,
      "stateMutability": "view",
      "type": "function"
    },
    {
      "constant": false,
      "inputs": [
        {
          "name": "newOwner",
          "type": "address"
        }
      ],
      "name": "transferOwnership",
      "outputs": [],
      "payable": false,
      "stateMutability": "nonpayable",
      "type": "function"
    },
    {
      "inputs": [
        {
          "name": "_identityProvider",
          "type": "uint8"
        },
        {
          "name": "_identifier",
          "type": "string"
        }
      ],
      "payable": false,
      "stateMutability": "nonpayable",
      "type": "constructor"
    },
    {
      "anonymous": false,
      "inputs": [
        {
          "indexed": true,
          "name": "previousOwner",
          "type": "address"
        },
        {
          "indexed": true,
          "name": "newOwner",
          "type": "address"
        }
      ],
      "name": "OwnershipTransferred",
      "type": "event"
    },
    {
      "constant": true,
      "inputs": [],
      "name": "getIdentifierHash",
      "outputs": [
        {
          "name": "",
          "type": "bytes32"
        }
      ],
      "payable": false,
      "stateMutability": "view",
      "type": "function"
    }
  ],
  "bytecode": "0x6060604052341561000f57600080fd5b60405161070838038061070883398101604052808051906020019091908051820191905050336000806101000a81548173ffffffffffffffffffffffffffffffffffffffff021916908373ffffffffffffffffffffffffffffffffffffffff1602179055506000600681111561008157fe5b82600681111561008d57fe5b14156100bf576020604051908101604052806000815250600190805190602001906100b9929190610142565b506100fe565b6100db81610128640100000000026104a4176401000000009004565b15156100e657600080fd5b80600190805190602001906100fc929190610142565b505b81600260006101000a81548160ff0219169083600681111561011c57fe5b021790555050506101fb565b60006101326101c2565b8290506000815111915050919050565b828054600181600116156101000203166002900490600052602060002090601f016020900481019282601f1061018357805160ff19168380011785556101b1565b828001600101855582156101b1579182015b828111156101b0578251825591602001919060010190610195565b5b5090506101be91906101d6565b5090565b602060405190810160405280600081525090565b6101f891905b808211156101f45760008160009055506001016101dc565b5090565b90565b6104fe8061020a6000396000f30060606040526004361061006d576000357c0100000000000000000000000000000000000000000000000000000000900463ffffffff1680637998a1c4146100725780638da5cb5b14610100578063c573a27a14610155578063ea8e9de31461018c578063f2fde38b146101bd575b600080fd5b341561007d57600080fd5b6100856101f6565b6040518080602001828103825283818151815260200191508051906020019080838360005b838110156100c55780820151818401526020810190506100aa565b50505050905090810190601f1680156100f25780820380516001836020036101000a031916815260200191505b509250505060405180910390f35b341561010b57600080fd5b610113610294565b604051808273ffffffffffffffffffffffffffffffffffffffff1673ffffffffffffffffffffffffffffffffffffffff16815260200191505060405180910390f35b341561016057600080fd5b6101686102b9565b6040518082600681111561017857fe5b60ff16815260200191505060405180910390f35b341561019757600080fd5b61019f6102cc565b60405180826000191660001916815260200191505060405180910390f35b34156101c857600080fd5b6101f4600480803573ffffffffffffffffffffffffffffffffffffffff169060200190919050506102dd565b005b60018054600181600116156101000203166002900480601f01602080910402602001604051908101604052809291908181526020018280546001816001161561010002031660029004801561028c5780601f106102615761010080835404028352916020019161028c565b820191906000526020600020905b81548152906001019060200180831161026f57829003601f168201915b505050505081565b6000809054906101000a900473ffffffffffffffffffffffffffffffffffffffff1681565b600260009054906101000a900460ff1681565b60006102d86001610432565b905090565b6000809054906101000a900473ffffffffffffffffffffffffffffffffffffffff1673ffffffffffffffffffffffffffffffffffffffff163373ffffffffffffffffffffffffffffffffffffffff1614151561033857600080fd5b600073ffffffffffffffffffffffffffffffffffffffff168173ffffffffffffffffffffffffffffffffffffffff161415151561037457600080fd5b8073ffffffffffffffffffffffffffffffffffffffff166000809054906101000a900473ffffffffffffffffffffffffffffffffffffffff1673ffffffffffffffffffffffffffffffffffffffff167f8be0079c531659141344cd1fd0a4f28419497f9722a3daafe3b4186f6b6457e060405160405180910390a3806000806101000a81548173ffffffffffffffffffffffffffffffffffffffff021916908373ffffffffffffffffffffffffffffffffffffffff16021790555050565b60008160405180828054600181600116156101000203166002900480156104905780601f1061046e576101008083540402835291820191610490565b820191906000526020600020905b81548152906001019060200180831161047c575b505091505060405180910390209050919050565b60006104ae6104be565b8290506000815111915050919050565b6020604051908101604052806000815250905600a165627a7a7230582011183c27ecdeb049127cb88cc5213670c13614668ea6185d394b729d2a8177990029",
  "source": "pragma solidity ^0.4.18;\r\n\r\n\r\nimport '../utils/Ownable.sol';\r\nimport '../utils/StringUtils.sol';\r\n\r\n/**\r\n * @title Entity\r\n * @dev The entity that represents a person or an organization\r\n */\r\ncontract Entity is Ownable {\r\n    using StringUtils for string;\r\n\r\n    /**\r\n     * @dev The off chain identity provider if the entity want to\r\n     * have a known identity.\r\n     */\r\n    enum IdentityProvider {\r\n        NONE,\r\n        ETH_ADDR,\r\n        EMAIL,\r\n        KEY_BASE,\r\n        NAME,\r\n        TWITTER_HANDLE,\r\n        OTHER\r\n    }\r\n\r\n    /**\r\n     * @dev The offchain identifier that corresponds to the identity provider.\r\n     */\r\n    string public identifier;\r\n\r\n    /**\r\n     * @dev The identity provider associated with the identifier.\r\n     */\r\n    IdentityProvider public identityProvider;\r\n\r\n    function Entity(\r\n        IdentityProvider _identityProvider,\r\n        string _identifier)\r\n        Ownable()\r\n        public\r\n    {\r\n        if (_identityProvider == IdentityProvider.NONE) {\r\n            // If the identity provider is none then set the\r\n            // identifier to empty string\r\n            identifier = \"\";\r\n        } else {\r\n            // If there is an identity provider then make sure\r\n            // some identifier is passed in\r\n            require(_identifier.isNotEmpty());\r\n            identifier = _identifier;\r\n        }\r\n\r\n        identityProvider = _identityProvider;\r\n    }\r\n\r\n    /**\r\n     * @dev Gets the hash of the identifier which can be used as key.\r\n     */\r\n    function getIdentifierHash()\r\n        view\r\n        public\r\n        returns (bytes32)\r\n    {\r\n        return identifier.getHash();\r\n    }\r\n        \r\n}",
  "sourcePath": "H:\\Projects\\my-github\\bol0x\\packages\\contracts\\contracts\\entity\\Entity.sol",
  "compiler": {
    "name": "solc",
    "version": "0.4.19+commit.c4cbbb05.Emscripten.clang"
  },
  "schemaVersion": "1.0.1",
  "updatedAt": "2018-03-08T06:27:29.792Z"
}