{
  "contractName": "IterativeContent",
  "abi": [
    {
      "constant": true,
      "inputs": [],
      "name": "contentAddress",
      "outputs": [
        {
          "name": "",
          "type": "string"
        }
      ],
      "payable": false,
      "stateMutability": "view",
      "type": "function"
    },
    {
      "constant": true,
      "inputs": [
        {
          "name": "",
          "type": "uint256"
        }
      ],
      "name": "iterations",
      "outputs": [
        {
          "name": "",
          "type": "string"
        }
      ],
      "payable": false,
      "stateMutability": "view",
      "type": "function"
    },
    {
      "constant": true,
      "inputs": [],
      "name": "contentUpdateTime",
      "outputs": [
        {
          "name": "",
          "type": "uint256"
        }
      ],
      "payable": false,
      "stateMutability": "view",
      "type": "function"
    },
    {
      "constant": true,
      "inputs": [],
      "name": "owner",
      "outputs": [
        {
          "name": "",
          "type": "address"
        }
      ],
      "payable": false,
      "stateMutability": "view",
      "type": "function"
    },
    {
      "constant": false,
      "inputs": [
        {
          "name": "newOwner",
          "type": "address"
        }
      ],
      "name": "transferOwnership",
      "outputs": [],
      "payable": false,
      "stateMutability": "nonpayable",
      "type": "function"
    },
    {
      "inputs": [
        {
          "name": "_contentAddress",
          "type": "string"
        }
      ],
      "payable": false,
      "stateMutability": "nonpayable",
      "type": "constructor"
    },
    {
      "anonymous": false,
      "inputs": [
        {
          "indexed": false,
          "name": "newContent",
          "type": "string"
        }
      ],
      "name": "ContentChanged",
      "type": "event"
    },
    {
      "anonymous": false,
      "inputs": [
        {
          "indexed": true,
          "name": "previousOwner",
          "type": "address"
        },
        {
          "indexed": true,
          "name": "newOwner",
          "type": "address"
        }
      ],
      "name": "OwnershipTransferred",
      "type": "event"
    },
    {
      "constant": false,
      "inputs": [
        {
          "name": "_contentAddress",
          "type": "string"
        }
      ],
      "name": "changeContent",
      "outputs": [],
      "payable": false,
      "stateMutability": "nonpayable",
      "type": "function"
    },
    {
      "constant": true,
      "inputs": [],
      "name": "getTotalIterations",
      "outputs": [
        {
          "name": "",
          "type": "uint256"
        }
      ],
      "payable": false,
      "stateMutability": "view",
      "type": "function"
    }
  ],
  "bytecode": "0x606060405234156200001057600080fd5b60405162000be338038062000be3833981016040528080518201919050508080336000806101000a81548173ffffffffffffffffffffffffffffffffffffffff021916908373ffffffffffffffffffffffffffffffffffffffff1602179055506200008f816200010464010000000002620007a5176401000000009004565b15156200009b57600080fd5b8060019080519060200190620000b392919062000120565b5050426002819055505060038054806001018281620000d39190620001a7565b916000526020600020900160008390919091509080519060200190620000fb92919062000120565b5050506200028f565b600062000110620001d6565b8290506000815111915050919050565b828054600181600116156101000203166002900490600052602060002090601f016020900481019282601f106200016357805160ff191683800117855562000194565b8280016001018555821562000194579182015b828111156200019357825182559160200191906001019062000176565b5b509050620001a39190620001ea565b5090565b815481835581811511620001d157818360005260206000209182019101620001d0919062000212565b5b505050565b602060405190810160405280600081525090565b6200020f91905b808211156200020b576000816000905550600101620001f1565b5090565b90565b6200024091905b808211156200023c576000818162000232919062000243565b5060010162000219565b5090565b90565b50805460018160011615610100020316600290046000825580601f106200026b57506200028c565b601f0160209004906000526020600020908101906200028b9190620001ea565b5b50565b610944806200029f6000396000f300606060405260043610610083576000357c0100000000000000000000000000000000000000000000000000000000900463ffffffff168063129b9775146100885780631971f4be14610116578063589bbae21461013f57806360240be2146101db578063896a5480146102385780638da5cb5b14610261578063f2fde38b146102b6575b600080fd5b341561009357600080fd5b61009b6102ef565b6040518080602001828103825283818151815260200191508051906020019080838360005b838110156100db5780820151818401526020810190506100c0565b50505050905090810190601f1680156101085780820380516001836020036101000a031916815260200191505b509250505060405180910390f35b341561012157600080fd5b61012961038d565b6040518082815260200191505060405180910390f35b341561014a57600080fd5b610160600480803590602001909190505061039a565b6040518080602001828103825283818151815260200191508051906020019080838360005b838110156101a0578082015181840152602081019050610185565b50505050905090810190601f1680156101cd5780820380516001836020036101000a031916815260200191505b509250505060405180910390f35b34156101e657600080fd5b610236600480803590602001908201803590602001908080601f01602080910402602001604051908101604052809392919081815260200183838082843782019150505050505091905050610456565b005b341561024357600080fd5b61024b6104f9565b6040518082815260200191505060405180910390f35b341561026c57600080fd5b6102746104ff565b604051808273ffffffffffffffffffffffffffffffffffffffff1673ffffffffffffffffffffffffffffffffffffffff16815260200191505060405180910390f35b34156102c157600080fd5b6102ed600480803573ffffffffffffffffffffffffffffffffffffffff16906020019091905050610524565b005b60018054600181600116156101000203166002900480601f0160208091040260200160405190810160405280929190818152602001828054600181600116156101000203166002900480156103855780601f1061035a57610100808354040283529160200191610385565b820191906000526020600020905b81548152906001019060200180831161036857829003601f168201915b505050505081565b6000600380549050905090565b6003818154811015156103a957fe5b90600052602060002090016000915090508054600181600116156101000203166002900480601f01602080910402602001604051908101604052809291908181526020018280546001816001161561010002031660029004801561044e5780601f106104235761010080835404028352916020019161044e565b820191906000526020600020905b81548152906001019060200180831161043157829003601f168201915b505050505081565b6000809054906101000a900473ffffffffffffffffffffffffffffffffffffffff1673ffffffffffffffffffffffffffffffffffffffff163373ffffffffffffffffffffffffffffffffffffffff161415156104b157600080fd5b6104ba81610679565b600380548060010182816104ce91906107bf565b9160005260206000209001600083909190915090805190602001906104f49291906107eb565b505050565b60025481565b6000809054906101000a900473ffffffffffffffffffffffffffffffffffffffff1681565b6000809054906101000a900473ffffffffffffffffffffffffffffffffffffffff1673ffffffffffffffffffffffffffffffffffffffff163373ffffffffffffffffffffffffffffffffffffffff1614151561057f57600080fd5b600073ffffffffffffffffffffffffffffffffffffffff168173ffffffffffffffffffffffffffffffffffffffff16141515156105bb57600080fd5b8073ffffffffffffffffffffffffffffffffffffffff166000809054906101000a900473ffffffffffffffffffffffffffffffffffffffff1673ffffffffffffffffffffffffffffffffffffffff167f8be0079c531659141344cd1fd0a4f28419497f9722a3daafe3b4186f6b6457e060405160405180910390a3806000806101000a81548173ffffffffffffffffffffffffffffffffffffffff021916908373ffffffffffffffffffffffffffffffffffffffff16021790555050565b6000809054906101000a900473ffffffffffffffffffffffffffffffffffffffff1673ffffffffffffffffffffffffffffffffffffffff163373ffffffffffffffffffffffffffffffffffffffff161415156106d457600080fd5b6106dd816107a5565b15156106e857600080fd5b7f982917a4d9902c770007e90477f2a16b0981468b70a8fe314a90f622a25bb3d2816040518080602001828103825283818151815260200191508051906020019080838360005b8381101561074a57808201518184015260208101905061072f565b50505050905090810190601f1680156107775780820380516001836020036101000a031916815260200191505b509250505060405180910390a1806001908051906020019061079a9291906107eb565b504260028190555050565b60006107af61086b565b8290506000815111915050919050565b8154818355818115116107e6578183600052602060002091820191016107e5919061087f565b5b505050565b828054600181600116156101000203166002900490600052602060002090601f016020900481019282601f1061082c57805160ff191683800117855561085a565b8280016001018555821561085a579182015b8281111561085957825182559160200191906001019061083e565b5b50905061086791906108ab565b5090565b602060405190810160405280600081525090565b6108a891905b808211156108a4576000818161089b91906108d0565b50600101610885565b5090565b90565b6108cd91905b808211156108c95760008160009055506001016108b1565b5090565b90565b50805460018160011615610100020316600290046000825580601f106108f65750610915565b601f01602090049060005260206000209081019061091491906108ab565b5b505600a165627a7a7230582071b71752f8a34e9df72984e9d9e60abeeed27cdd370ec903c3cca20789ae69090029",
  "source": "pragma solidity ^0.4.18;\r\n\r\nimport './UpdatableContent.sol';\r\n\r\n/**\r\n * @title Iterative Content\r\n * @dev The IterativeContent along with allowing you to change offchain content address also keeps track of older content addresses\r\n */\r\ncontract IterativeContent is UpdatableContent {\r\n\r\n    string[] public iterations;\r\n\r\n    function IterativeContent(\r\n        string _contentAddress)\r\n        UpdatableContent(_contentAddress)\r\n        public\r\n    {\r\n        // Add the first content as iteration as well\r\n        iterations.push(_contentAddress);\r\n    }\r\n\r\n\r\n    /**\r\n     * @dev It changes the offchain content address\r\n     * @param _contentAddress A non-empty string that represents offchain content address\r\n     */\r\n    function changeContent(string _contentAddress) onlyOwner public {\r\n        super.changeContent(_contentAddress);\r\n        iterations.push(_contentAddress);\r\n    }\r\n\r\n    /**\r\n     * @dev A view function that tells how many total iterations are there\r\n     */\r\n    function getTotalIterations() external view returns(uint256) {\r\n        return iterations.length;\r\n    }\r\n}",
  "sourcePath": "H:\\Projects\\my-github\\bol0x\\packages\\contracts\\contracts\\content\\IterativeContent.sol",
  "compiler": {
    "name": "solc",
    "version": "0.4.19+commit.c4cbbb05.Emscripten.clang"
  },
  "schemaVersion": "1.0.1",
  "updatedAt": "2018-03-08T06:27:29.792Z"
}