{
  "contractName": "UniqueIdentifierEntityDirectory",
  "abi": [
    {
      "constant": true,
      "inputs": [
        {
          "name": "",
          "type": "uint256"
        }
      ],
      "name": "entities",
      "outputs": [
        {
          "name": "",
          "type": "address"
        }
      ],
      "payable": false,
      "stateMutability": "view",
      "type": "function"
    },
    {
      "constant": true,
      "inputs": [],
      "name": "identifier",
      "outputs": [
        {
          "name": "",
          "type": "string"
        }
      ],
      "payable": false,
      "stateMutability": "view",
      "type": "function"
    },
    {
      "constant": true,
      "inputs": [],
      "name": "getAllEntities",
      "outputs": [
        {
          "name": "",
          "type": "address[]"
        }
      ],
      "payable": false,
      "stateMutability": "view",
      "type": "function"
    },
    {
      "constant": true,
      "inputs": [
        {
          "name": "",
          "type": "bytes32"
        }
      ],
      "name": "uniqueIdentifier",
      "outputs": [
        {
          "name": "",
          "type": "uint256"
        }
      ],
      "payable": false,
      "stateMutability": "view",
      "type": "function"
    },
    {
      "constant": true,
      "inputs": [],
      "name": "owner",
      "outputs": [
        {
          "name": "",
          "type": "address"
        }
      ],
      "payable": false,
      "stateMutability": "view",
      "type": "function"
    },
    {
      "constant": true,
      "inputs": [],
      "name": "identityProvider",
      "outputs": [
        {
          "name": "",
          "type": "uint8"
        }
      ],
      "payable": false,
      "stateMutability": "view",
      "type": "function"
    },
    {
      "constant": true,
      "inputs": [],
      "name": "getIdentifierHash",
      "outputs": [
        {
          "name": "",
          "type": "bytes32"
        }
      ],
      "payable": false,
      "stateMutability": "view",
      "type": "function"
    },
    {
      "constant": false,
      "inputs": [
        {
          "name": "newOwner",
          "type": "address"
        }
      ],
      "name": "transferOwnership",
      "outputs": [],
      "payable": false,
      "stateMutability": "nonpayable",
      "type": "function"
    },
    {
      "inputs": [
        {
          "name": "_identityProvider",
          "type": "uint8"
        },
        {
          "name": "_identifier",
          "type": "string"
        }
      ],
      "payable": false,
      "stateMutability": "nonpayable",
      "type": "constructor"
    },
    {
      "anonymous": false,
      "inputs": [
        {
          "indexed": true,
          "name": "entity",
          "type": "address"
        }
      ],
      "name": "EntityAdded",
      "type": "event"
    },
    {
      "anonymous": false,
      "inputs": [
        {
          "indexed": true,
          "name": "entity",
          "type": "address"
        }
      ],
      "name": "EntityRemoved",
      "type": "event"
    },
    {
      "anonymous": false,
      "inputs": [
        {
          "indexed": true,
          "name": "previousOwner",
          "type": "address"
        },
        {
          "indexed": true,
          "name": "newOwner",
          "type": "address"
        }
      ],
      "name": "OwnershipTransferred",
      "type": "event"
    },
    {
      "constant": false,
      "inputs": [
        {
          "name": "_entity",
          "type": "address"
        }
      ],
      "name": "addEntity",
      "outputs": [],
      "payable": false,
      "stateMutability": "nonpayable",
      "type": "function"
    },
    {
      "constant": false,
      "inputs": [
        {
          "name": "_entity",
          "type": "address"
        }
      ],
      "name": "removeEntity",
      "outputs": [],
      "payable": false,
      "stateMutability": "nonpayable",
      "type": "function"
    }
  ],
  "bytecode": "0x606060405234156200001057600080fd5b6040516200119d3803806200119d8339810160405280805190602001909190805182019190505081818181336000806101000a81548173ffffffffffffffffffffffffffffffffffffffff021916908373ffffffffffffffffffffffffffffffffffffffff160217905550600060068111156200008957fe5b8260068111156200009657fe5b1415620000cc57602060405190810160405280600081525060019080519060200190620000c59291906200015d565b5062000111565b620000eb81620001416401000000000262000f13176401000000009004565b1515620000f757600080fd5b80600190805190602001906200010f9291906200015d565b505b81600260006101000a81548160ff021916908360068111156200013057fe5b021790555050505050505062000220565b60006200014d620001e4565b8290506000815111915050919050565b828054600181600116156101000203166002900490600052602060002090601f016020900481019282601f10620001a057805160ff1916838001178555620001d1565b82800160010185558215620001d1579182015b82811115620001d0578251825591602001919060010190620001b3565b5b509050620001e09190620001f8565b5090565b602060405190810160405280600081525090565b6200021d91905b8082111562000219576000816000905550600101620001ff565b5090565b90565b610f6d80620002306000396000f3006060604052600436106100a4576000357c0100000000000000000000000000000000000000000000000000000000900463ffffffff1680636331883b146100a95780637998a1c41461010c5780637e69dae01461019a5780637fa5a350146102045780638da5cb5b1461023f578063c573a27a14610294578063dd182996146102cb578063ea8e9de314610304578063f1703d2414610335578063f2fde38b1461036e575b600080fd5b34156100b457600080fd5b6100ca60048080359060200190919050506103a7565b604051808273ffffffffffffffffffffffffffffffffffffffff1673ffffffffffffffffffffffffffffffffffffffff16815260200191505060405180910390f35b341561011757600080fd5b61011f6103e6565b6040518080602001828103825283818151815260200191508051906020019080838360005b8381101561015f578082015181840152602081019050610144565b50505050905090810190601f16801561018c5780820380516001836020036101000a031916815260200191505b509250505060405180910390f35b34156101a557600080fd5b6101ad610484565b6040518080602001828103825283818151815260200191508051906020019060200280838360005b838110156101f05780820151818401526020810190506101d5565b505050509050019250505060405180910390f35b341561020f57600080fd5b610229600480803560001916906020019091905050610518565b6040518082815260200191505060405180910390f35b341561024a57600080fd5b610252610530565b604051808273ffffffffffffffffffffffffffffffffffffffff1673ffffffffffffffffffffffffffffffffffffffff16815260200191505060405180910390f35b341561029f57600080fd5b6102a7610555565b604051808260068111156102b757fe5b60ff16815260200191505060405180910390f35b34156102d657600080fd5b610302600480803573ffffffffffffffffffffffffffffffffffffffff16906020019091905050610568565b005b341561030f57600080fd5b610317610773565b60405180826000191660001916815260200191505060405180910390f35b341561034057600080fd5b61036c600480803573ffffffffffffffffffffffffffffffffffffffff16906020019091905050610784565b005b341561037957600080fd5b6103a5600480803573ffffffffffffffffffffffffffffffffffffffff169060200190919050506109a7565b005b6003818154811015156103b657fe5b90600052602060002090016000915054906101000a900473ffffffffffffffffffffffffffffffffffffffff1681565b60018054600181600116156101000203166002900480601f01602080910402602001604051908101604052809291908181526020018280546001816001161561010002031660029004801561047c5780601f106104515761010080835404028352916020019161047c565b820191906000526020600020905b81548152906001019060200180831161045f57829003601f168201915b505050505081565b61048c610e82565b600380548060200260200160405190810160405280929190818152602001828054801561050e57602002820191906000526020600020905b8160009054906101000a900473ffffffffffffffffffffffffffffffffffffffff1673ffffffffffffffffffffffffffffffffffffffff16815260200190600101908083116104c4575b5050505050905090565b60046020528060005260406000206000915090505481565b6000809054906101000a900473ffffffffffffffffffffffffffffffffffffffff1681565b600260009054906101000a900460ff1681565b6000806000836000809054906101000a900473ffffffffffffffffffffffffffffffffffffffff1673ffffffffffffffffffffffffffffffffffffffff163373ffffffffffffffffffffffffffffffffffffffff16148061067a57508073ffffffffffffffffffffffffffffffffffffffff16638da5cb5b6000604051602001526040518163ffffffff167c0100000000000000000000000000000000000000000000000000000000028152600401602060405180830381600087803b151561063057600080fd5b6102c65a03f1151561064157600080fd5b5050506040518051905073ffffffffffffffffffffffffffffffffffffffff163373ffffffffffffffffffffffffffffffffffffffff16145b151561068557600080fd5b8493508373ffffffffffffffffffffffffffffffffffffffff1663ea8e9de36000604051602001526040518163ffffffff167c0100000000000000000000000000000000000000000000000000000000028152600401602060405180830381600087803b15156106f457600080fd5b6102c65a03f1151561070557600080fd5b5050506040518051905092506004600084600019166000191681526020019081526020016000205491506000821415151561073f57600080fd5b60006004600085600019166000191681526020019081526020016000208190555061076c60018303610afc565b5050505050565b600061077f6001610c36565b905090565b600080826000809054906101000a900473ffffffffffffffffffffffffffffffffffffffff1673ffffffffffffffffffffffffffffffffffffffff163373ffffffffffffffffffffffffffffffffffffffff16148061089457508073ffffffffffffffffffffffffffffffffffffffff16638da5cb5b6000604051602001526040518163ffffffff167c0100000000000000000000000000000000000000000000000000000000028152600401602060405180830381600087803b151561084a57600080fd5b6102c65a03f1151561085b57600080fd5b5050506040518051905073ffffffffffffffffffffffffffffffffffffffff163373ffffffffffffffffffffffffffffffffffffffff16145b151561089f57600080fd5b8392508273ffffffffffffffffffffffffffffffffffffffff1663ea8e9de36000604051602001526040518163ffffffff167c0100000000000000000000000000000000000000000000000000000000028152600401602060405180830381600087803b151561090e57600080fd5b6102c65a03f1151561091f57600080fd5b505050604051805190509150610933610ca8565b6000191682600019161415151561094957600080fd5b60006004600084600019166000191681526020019081526020016000205414151561097357600080fd5b61097c84610cc0565b6003805490506004600084600019166000191681526020019081526020016000208190555050505050565b6000809054906101000a900473ffffffffffffffffffffffffffffffffffffffff1673ffffffffffffffffffffffffffffffffffffffff163373ffffffffffffffffffffffffffffffffffffffff16141515610a0257600080fd5b600073ffffffffffffffffffffffffffffffffffffffff168173ffffffffffffffffffffffffffffffffffffffff1614151515610a3e57600080fd5b8073ffffffffffffffffffffffffffffffffffffffff166000809054906101000a900473ffffffffffffffffffffffffffffffffffffffff1673ffffffffffffffffffffffffffffffffffffffff167f8be0079c531659141344cd1fd0a4f28419497f9722a3daafe3b4186f6b6457e060405160405180910390a3806000806101000a81548173ffffffffffffffffffffffffffffffffffffffff021916908373ffffffffffffffffffffffffffffffffffffffff16021790555050565b6000600382815481101515610b0d57fe5b906000526020600020900160009054906101000a900473ffffffffffffffffffffffffffffffffffffffff1690506003600160038054905003815481101515610b5257fe5b906000526020600020900160009054906101000a900473ffffffffffffffffffffffffffffffffffffffff16600383815481101515610b8d57fe5b906000526020600020900160006101000a81548173ffffffffffffffffffffffffffffffffffffffff021916908373ffffffffffffffffffffffffffffffffffffffff1602179055506001600381818054905003915081610bee9190610e96565b508073ffffffffffffffffffffffffffffffffffffffff167f66baa8598dad476a7a23c2c39a3c9ea353a313b8050f5f2ff7df3121abe1f98360405160405180910390a25050565b6000816040518082805460018160011615610100020316600290048015610c945780601f10610c72576101008083540402835291820191610c94565b820191906000526020600020905b815481529060010190602001808311610c80575b505091505060405180910390209050919050565b60006040518060000190506040518091039020905090565b806000809054906101000a900473ffffffffffffffffffffffffffffffffffffffff1673ffffffffffffffffffffffffffffffffffffffff163373ffffffffffffffffffffffffffffffffffffffff161480610dcd57508073ffffffffffffffffffffffffffffffffffffffff16638da5cb5b6000604051602001526040518163ffffffff167c0100000000000000000000000000000000000000000000000000000000028152600401602060405180830381600087803b1515610d8357600080fd5b6102c65a03f11515610d9457600080fd5b5050506040518051905073ffffffffffffffffffffffffffffffffffffffff163373ffffffffffffffffffffffffffffffffffffffff16145b1515610dd857600080fd5b60038054806001018281610dec9190610ec2565b9160005260206000209001600084909190916101000a81548173ffffffffffffffffffffffffffffffffffffffff021916908373ffffffffffffffffffffffffffffffffffffffff160217905550508173ffffffffffffffffffffffffffffffffffffffff167fb22e19f08ff14b8507fef310677b98ad1329eba6abb5b90f147acd6475dc762b60405160405180910390a25050565b602060405190810160405280600081525090565b815481835581811511610ebd57818360005260206000209182019101610ebc9190610eee565b5b505050565b815481835581811511610ee957818360005260206000209182019101610ee89190610eee565b5b505050565b610f1091905b80821115610f0c576000816000905550600101610ef4565b5090565b90565b6000610f1d610f2d565b8290506000815111915050919050565b6020604051908101604052806000815250905600a165627a7a7230582078424ae78eb58d437909cd09615e630456d5f7d1ad2bafcf5fb0c00a0c85098e0029",
  "source": "pragma solidity ^0.4.18;\r\n\r\n\r\nimport './EntityDirectory.sol';\r\nimport '../entity/Entity.sol';\r\nimport '../utils/StringUtils.sol';\r\n\r\ncontract UniqueIdentifierEntityDirectory is EntityDirectory {\r\n\r\n    mapping(bytes32 => uint256) public uniqueIdentifier;\r\n    \r\n    function UniqueIdentifierEntityDirectory(\r\n        IdentityProvider _identityProvider,\r\n        string _identifier)\r\n        EntityDirectory(_identityProvider, _identifier)\r\n        public\r\n    {\r\n    }\r\n\r\n    /**\r\n     * @dev Add an entity to the directory based on its identifier.\r\n     * No two entites with the same identifier can be added.\r\n     * param _entity The entity to add.\r\n     */\r\n    function addEntity(\r\n        address _entity)\r\n        onlyOwnerOrEntityOwner(_entity)\r\n        public\r\n    {\r\n        Entity entity = Entity(_entity);\r\n        bytes32 identifier = entity.getIdentifierHash();\r\n        require(identifier != StringUtils.getEmptyStringHash());\r\n\r\n        // Check if the identifier was not already added\r\n        require(uniqueIdentifier[identifier] == 0);\r\n\r\n        super.addEntity(_entity);\r\n        uniqueIdentifier[identifier] = entities.length;\r\n    }\r\n\r\n    /**\r\n     * @dev Remove an existing entity from the directory.\r\n     * param _entity The entity to remove.\r\n     */\r\n    function removeEntity(\r\n        address _entity)\r\n        onlyOwnerOrEntityOwner(_entity)\r\n        public\r\n    {\r\n        Entity entity = Entity(_entity);\r\n        bytes32 identifier = entity.getIdentifierHash();\r\n        uint256 identifierIndexAhead = uniqueIdentifier[identifier];\r\n        require(identifierIndexAhead != 0);\r\n\r\n        uniqueIdentifier[identifier] = 0;\r\n        removeEntityFromList(\r\n            identifierIndexAhead - 1);\r\n    }\r\n}",
  "sourcePath": "H:\\Projects\\my-github\\bol0x\\packages\\contracts\\contracts\\directory\\UniqueIdentifierEntityDirectory.sol",
  "compiler": {
    "name": "solc",
    "version": "0.4.19+commit.c4cbbb05.Emscripten.clang"
  },
  "schemaVersion": "1.0.1",
  "updatedAt": "2018-03-08T06:27:29.792Z"
}