{
  "contractName": "UpdatableContent",
  "abi": [
    {
      "constant": true,
      "inputs": [],
      "name": "contentAddress",
      "outputs": [
        {
          "name": "",
          "type": "string"
        }
      ],
      "payable": false,
      "stateMutability": "view",
      "type": "function"
    },
    {
      "constant": true,
      "inputs": [],
      "name": "contentUpdateTime",
      "outputs": [
        {
          "name": "",
          "type": "uint256"
        }
      ],
      "payable": false,
      "stateMutability": "view",
      "type": "function"
    },
    {
      "constant": true,
      "inputs": [],
      "name": "owner",
      "outputs": [
        {
          "name": "",
          "type": "address"
        }
      ],
      "payable": false,
      "stateMutability": "view",
      "type": "function"
    },
    {
      "constant": false,
      "inputs": [
        {
          "name": "newOwner",
          "type": "address"
        }
      ],
      "name": "transferOwnership",
      "outputs": [],
      "payable": false,
      "stateMutability": "nonpayable",
      "type": "function"
    },
    {
      "inputs": [
        {
          "name": "_contentAddress",
          "type": "string"
        }
      ],
      "payable": false,
      "stateMutability": "nonpayable",
      "type": "constructor"
    },
    {
      "anonymous": false,
      "inputs": [
        {
          "indexed": false,
          "name": "newContent",
          "type": "string"
        }
      ],
      "name": "ContentChanged",
      "type": "event"
    },
    {
      "anonymous": false,
      "inputs": [
        {
          "indexed": true,
          "name": "previousOwner",
          "type": "address"
        },
        {
          "indexed": true,
          "name": "newOwner",
          "type": "address"
        }
      ],
      "name": "OwnershipTransferred",
      "type": "event"
    },
    {
      "constant": false,
      "inputs": [
        {
          "name": "_contentAddress",
          "type": "string"
        }
      ],
      "name": "changeContent",
      "outputs": [],
      "payable": false,
      "stateMutability": "nonpayable",
      "type": "function"
    }
  ],
  "bytecode": "0x6060604052341561000f57600080fd5b6040516107f73803806107f78339810160405280805182019190505080336000806101000a81548173ffffffffffffffffffffffffffffffffffffffff021916908373ffffffffffffffffffffffffffffffffffffffff160217905550610088816100b86401000000000261055e176401000000009004565b151561009357600080fd5b80600190805190602001906100a99291906100d2565b5050426002819055505061018b565b60006100c2610152565b8290506000815111915050919050565b828054600181600116156101000203166002900490600052602060002090601f016020900481019282601f1061011357805160ff1916838001178555610141565b82800160010185558215610141579182015b82811115610140578251825591602001919060010190610125565b5b50905061014e9190610166565b5090565b602060405190810160405280600081525090565b61018891905b8082111561018457600081600090555060010161016c565b5090565b90565b61065d8061019a6000396000f30060606040526004361061006d576000357c0100000000000000000000000000000000000000000000000000000000900463ffffffff168063129b97751461007257806360240be214610100578063896a54801461015d5780638da5cb5b14610186578063f2fde38b146101db575b600080fd5b341561007d57600080fd5b610085610214565b6040518080602001828103825283818151815260200191508051906020019080838360005b838110156100c55780820151818401526020810190506100aa565b50505050905090810190601f1680156100f25780820380516001836020036101000a031916815260200191505b509250505060405180910390f35b341561010b57600080fd5b61015b600480803590602001908201803590602001908080601f016020809104026020016040519081016040528093929190818152602001838380828437820191505050505050919050506102b2565b005b341561016857600080fd5b6101706103de565b6040518082815260200191505060405180910390f35b341561019157600080fd5b6101996103e4565b604051808273ffffffffffffffffffffffffffffffffffffffff1673ffffffffffffffffffffffffffffffffffffffff16815260200191505060405180910390f35b34156101e657600080fd5b610212600480803573ffffffffffffffffffffffffffffffffffffffff16906020019091905050610409565b005b60018054600181600116156101000203166002900480601f0160208091040260200160405190810160405280929190818152602001828054600181600116156101000203166002900480156102aa5780601f1061027f576101008083540402835291602001916102aa565b820191906000526020600020905b81548152906001019060200180831161028d57829003601f168201915b505050505081565b6000809054906101000a900473ffffffffffffffffffffffffffffffffffffffff1673ffffffffffffffffffffffffffffffffffffffff163373ffffffffffffffffffffffffffffffffffffffff1614151561030d57600080fd5b6103168161055e565b151561032157600080fd5b7f982917a4d9902c770007e90477f2a16b0981468b70a8fe314a90f622a25bb3d2816040518080602001828103825283818151815260200191508051906020019080838360005b83811015610383578082015181840152602081019050610368565b50505050905090810190601f1680156103b05780820380516001836020036101000a031916815260200191505b509250505060405180910390a180600190805190602001906103d3929190610578565b504260028190555050565b60025481565b6000809054906101000a900473ffffffffffffffffffffffffffffffffffffffff1681565b6000809054906101000a900473ffffffffffffffffffffffffffffffffffffffff1673ffffffffffffffffffffffffffffffffffffffff163373ffffffffffffffffffffffffffffffffffffffff1614151561046457600080fd5b600073ffffffffffffffffffffffffffffffffffffffff168173ffffffffffffffffffffffffffffffffffffffff16141515156104a057600080fd5b8073ffffffffffffffffffffffffffffffffffffffff166000809054906101000a900473ffffffffffffffffffffffffffffffffffffffff1673ffffffffffffffffffffffffffffffffffffffff167f8be0079c531659141344cd1fd0a4f28419497f9722a3daafe3b4186f6b6457e060405160405180910390a3806000806101000a81548173ffffffffffffffffffffffffffffffffffffffff021916908373ffffffffffffffffffffffffffffffffffffffff16021790555050565b60006105686105f8565b8290506000815111915050919050565b828054600181600116156101000203166002900490600052602060002090601f016020900481019282601f106105b957805160ff19168380011785556105e7565b828001600101855582156105e7579182015b828111156105e65782518255916020019190600101906105cb565b5b5090506105f4919061060c565b5090565b602060405190810160405280600081525090565b61062e91905b8082111561062a576000816000905550600101610612565b5090565b905600a165627a7a72305820dbc46a0d05f3cea7df47bc75ab2d0da15b47a8e4ddb1184e8c41db8838ca4dd90029",
  "source": "pragma solidity ^0.4.18;\r\n\r\nimport './Content.sol';\r\nimport '../utils/StringUtils.sol';\r\n\r\n/**\r\n * @title Updatable Content\r\n * @dev The UpdateableContent contract allows the offchain content address to be updated in case of content change\r\n */\r\ncontract UpdatableContent is Content {\r\n\r\n    uint256 public contentUpdateTime;\r\n\r\n    event ContentChanged(string newContent);\r\n\r\n    function UpdatableContent(\r\n        string _contentAddress)\r\n        Content(_contentAddress)\r\n        Ownable()\r\n        public\r\n    {\r\n        contentUpdateTime = now;\r\n    }\r\n\r\n    /**\r\n     * @dev It changes the offchain content address\r\n     * @param _contentAddress A non-empty string that represents offchain content address\r\n     */\r\n    function changeContent(\r\n        string _contentAddress)\r\n        onlyOwner\r\n        public\r\n    {\r\n        require(StringUtils.isNotEmpty(_contentAddress));\r\n\r\n        ContentChanged(_contentAddress);\r\n        contentAddress = _contentAddress;\r\n        contentUpdateTime = now;\r\n    }\r\n}",
  "sourcePath": "H:\\Projects\\my-github\\bol0x\\packages\\contracts\\contracts\\content\\UpdatableContent.sol",
  "compiler": {
    "name": "solc",
    "version": "0.4.19+commit.c4cbbb05.Emscripten.clang"
  },
  "schemaVersion": "1.0.1",
  "updatedAt": "2018-03-08T06:27:29.792Z"
}